{
  "_format": "hh-sol-artifact-1",
  "contractName": "Cert",
  "sourceName": "contracts/Cert.sol",
  "abi": [
    {
      "inputs": [],
      "stateMutability": "nonpayable",
      "type": "constructor"
    },
    {
      "anonymous": false,
      "inputs": [
        {
          "indexed": true,
          "internalType": "string",
          "name": "course",
          "type": "string"
        },
        {
          "indexed": false,
          "internalType": "uint256",
          "name": "id",
          "type": "uint256"
        },
        {
          "indexed": false,
          "internalType": "string",
          "name": "grade",
          "type": "string"
        }
      ],
      "name": "Issued",
      "type": "event"
    },
    {
      "inputs": [
        {
          "internalType": "uint256",
          "name": "",
          "type": "uint256"
        }
      ],
      "name": "Certificates",
      "outputs": [
        {
          "internalType": "string",
          "name": "name",
          "type": "string"
        },
        {
          "internalType": "string",
          "name": "course",
          "type": "string"
        },
        {
          "internalType": "string",
          "name": "grade",
          "type": "string"
        },
        {
          "internalType": "string",
          "name": "date",
          "type": "string"
        }
      ],
      "stateMutability": "view",
      "type": "function"
    },
    {
      "inputs": [
        {
          "internalType": "uint256",
          "name": "_id",
          "type": "uint256"
        },
        {
          "internalType": "string",
          "name": "_name",
          "type": "string"
        },
        {
          "internalType": "string",
          "name": "_course",
          "type": "string"
        },
        {
          "internalType": "string",
          "name": "_grade",
          "type": "string"
        },
        {
          "internalType": "string",
          "name": "_date",
          "type": "string"
        }
      ],
      "name": "issue",
      "outputs": [],
      "stateMutability": "nonpayable",
      "type": "function"
    }
  ],
  "bytecode": "0x608060405234801561001057600080fd5b50336000806101000a81548173ffffffffffffffffffffffffffffffffffffffff021916908373ffffffffffffffffffffffffffffffffffffffff160217905550610be7806100606000396000f3fe608060405234801561001057600080fd5b50600436106100365760003560e01c80639622c8361461003b578063d1e7be261461006e575b600080fd5b61005560048036038101906100509190610497565b61008a565b6040516100659493929190610554565b60405180910390f35b610088600480360381019061008391906106ea565b6102da565b005b60016020528060005260406000206000915090508060000180546100ad90610804565b80601f01602080910402602001604051908101604052809291908181526020018280546100d990610804565b80156101265780601f106100fb57610100808354040283529160200191610126565b820191906000526020600020905b81548152906001019060200180831161010957829003601f168201915b50505050509080600101805461013b90610804565b80601f016020809104026020016040519081016040528092919081815260200182805461016790610804565b80156101b45780601f10610189576101008083540402835291602001916101b4565b820191906000526020600020905b81548152906001019060200180831161019757829003601f168201915b5050505050908060020180546101c990610804565b80601f01602080910402602001604051908101604052809291908181526020018280546101f590610804565b80156102425780601f1061021757610100808354040283529160200191610242565b820191906000526020600020905b81548152906001019060200180831161022557829003601f168201915b50505050509080600301805461025790610804565b80601f016020809104026020016040519081016040528092919081815260200182805461028390610804565b80156102d05780601f106102a5576101008083540402835291602001916102d0565b820191906000526020600020905b8154815290600101906020018083116102b357829003601f168201915b5050505050905084565b60008054906101000a900473ffffffffffffffffffffffffffffffffffffffff1673ffffffffffffffffffffffffffffffffffffffff163373ffffffffffffffffffffffffffffffffffffffff1614610368576040517f08c379a000000000000000000000000000000000000000000000000000000000815260040161035f90610881565b60405180910390fd5b6040518060800160405280858152602001848152602001838152602001828152506001600087815260200190815260200160002060008201518160000190816103b19190610a4d565b5060208201518160010190816103c79190610a4d565b5060408201518160020190816103dd9190610a4d565b5060608201518160030190816103f39190610a4d565b50905050826040516104059190610b5b565b60405180910390207fc7fc4858662996e8fe091a9941384ab745bfc51199d7c0a5e45a791ff945993c868460405161043e929190610b81565b60405180910390a25050505050565b6000604051905090565b600080fd5b600080fd5b6000819050919050565b61047481610461565b811461047f57600080fd5b50565b6000813590506104918161046b565b92915050565b6000602082840312156104ad576104ac610457565b5b60006104bb84828501610482565b91505092915050565b600081519050919050565b600082825260208201905092915050565b60005b838110156104fe5780820151818401526020810190506104e3565b60008484015250505050565b6000601f19601f8301169050919050565b6000610526826104c4565b61053081856104cf565b93506105408185602086016104e0565b6105498161050a565b840191505092915050565b6000608082019050818103600083015261056e818761051b565b90508181036020830152610582818661051b565b90508181036040830152610596818561051b565b905081810360608301526105aa818461051b565b905095945050505050565b600080fd5b600080fd5b7f4e487b7100000000000000000000000000000000000000000000000000000000600052604160045260246000fd5b6105f78261050a565b810181811067ffffffffffffffff82111715610616576106156105bf565b5b80604052505050565b600061062961044d565b905061063582826105ee565b919050565b600067ffffffffffffffff821115610655576106546105bf565b5b61065e8261050a565b9050602081019050919050565b82818337600083830152505050565b600061068d6106888461063a565b61061f565b9050828152602081018484840111156106a9576106a86105ba565b5b6106b484828561066b565b509392505050565b600082601f8301126106d1576106d06105b5565b5b81356106e184826020860161067a565b91505092915050565b600080600080600060a0868803121561070657610705610457565b5b600061071488828901610482565b955050602086013567ffffffffffffffff8111156107355761073461045c565b5b610741888289016106bc565b945050604086013567ffffffffffffffff8111156107625761076161045c565b5b61076e888289016106bc565b935050606086013567ffffffffffffffff81111561078f5761078e61045c565b5b61079b888289016106bc565b925050608086013567ffffffffffffffff8111156107bc576107bb61045c565b5b6107c8888289016106bc565b9150509295509295909350565b7f4e487b7100000000000000000000000000000000000000000000000000000000600052602260045260246000fd5b6000600282049050600182168061081c57607f821691505b60208210810361082f5761082e6107d5565b5b50919050565b7f4163636573732044656e69656400000000000000000000000000000000000000600082015250565b600061086b600d836104cf565b915061087682610835565b602082019050919050565b6000602082019050818103600083015261089a8161085e565b9050919050565b60008190508160005260206000209050919050565b60006020601f8301049050919050565b600082821b905092915050565b6000600883026109037fffffffffffffffffffffffffffffffffffffffffffffffffffffffffffffffff826108c6565b61090d86836108c6565b95508019841693508086168417925050509392505050565b6000819050919050565b600061094a61094561094084610461565b610925565b610461565b9050919050565b6000819050919050565b6109648361092f565b61097861097082610951565b8484546108d3565b825550505050565b600090565b61098d610980565b61099881848461095b565b505050565b5b818110156109bc576109b1600082610985565b60018101905061099e565b5050565b601f821115610a01576109d2816108a1565b6109db846108b6565b810160208510156109ea578190505b6109fe6109f6856108b6565b83018261099d565b50505b505050565b600082821c905092915050565b6000610a2460001984600802610a06565b1980831691505092915050565b6000610a3d8383610a13565b9150826002028217905092915050565b610a56826104c4565b67ffffffffffffffff811115610a6f57610a6e6105bf565b5b610a798254610804565b610a848282856109c0565b600060209050601f831160018114610ab75760008415610aa5578287015190505b610aaf8582610a31565b865550610b17565b601f198416610ac5866108a1565b60005b82811015610aed57848901518255600182019150602085019450602081019050610ac8565b86831015610b0a5784890151610b06601f891682610a13565b8355505b6001600288020188555050505b505050505050565b600081905092915050565b6000610b35826104c4565b610b3f8185610b1f565b9350610b4f8185602086016104e0565b80840191505092915050565b6000610b678284610b2a565b915081905092915050565b610b7b81610461565b82525050565b6000604082019050610b966000830185610b72565b8181036020830152610ba8818461051b565b9050939250505056fea2646970667358221220a764d64619e2387c73a18d493e7250e5ae746c4559b2174f8a559e36121eee3c64736f6c63430008180033",
  "linkReferences": {},
  "deployedLinkReferences": {}
}